:020000040000FA
:06000000F5EF19F01200FB
:06100000F5EF19F01200EB
:06100800E4EF17F01200F6
:061018003BEF18F012008E
:06102A0001003834000053
:08103000600000000100000057
:08103800D9CFE6FFE1CFD9FF9B
:10104000020EE126DF6A010EDB6A776A0F014B6B45
:10105000D26AD16AC098C26A230EC16EC088C168C4
:10106000C268C0989B9C92809284928A9286928257
:10107000969A949E939A939C93969592978C978A1E
:101080009A9E9A9C998A998C998E958A9598959C06
:10109000959E938293844B6B838EC00E6D6E6B6AAC
:1010A000200E6C6E160EDF6EDE52430EDD6E010EEC
:1010B000DBCFE6FFDFCFE6FF74EC0DF0E552E55243
:1010C0001B0EDF6EDE52700EDD6E010EDBCFE6FF13
:1010D000DFCFE6FF74EC0DF0E552E5521C0EDF6E3B
:1010E000DE527F0EDD6E010EDBCFE6FFDFCFE6FFC7
:1010F00074EC0DF0E552E5521D0EDF6EDE52040E6B
:10110000DD6E010EDBCFE6FFDFCFE6FF74EC0DF006
:10111000E552E5521E0EDF6EDE527F0EDD6E010ED1
:10112000DBCFE6FFDFCFE6FF74EC0DF0E552E552D2
:10113000180EDF6EDE52040EDD6E010EDBCFE6FF11
:10114000DFCFE6FF74EC0DF0E552E552818C818A29
:10115000849A828E020EE15C02E2E16AE552E16E5F
:10116000E552E7CFD9FF1200D9CFE6FFE1CFD9FF93
:10117000E652DF6AFE0EE66EE668040EE66E410E8B
:10118000E66E15EC19F0E552E552E552E55218EC21
:101190001AF00EEC1AF0000901E0FBD7C450FE0B68
:1011A000E842DF6E14EC1AF0DF5000D0E552E55251
:1011B000E7CFD9FF1200D9CFE6FFE1CFD9FFE65242
:1011C000DF6AE66A800EE66E740EE66E410EE66E2B
:1011D00015EC19F0E552E552E552E55218EC1AF01B
:1011E0000EEC1AF0000901E0FBD7C450DF6EDF50AF
:1011F000106E116AD890115004E6A20E105C000E19
:1012000011581FE2DF50106E116A113404E21050C1
:101210008408000E115413E2DF50106E116A840E20
:10122000105E000E115A030E1102F3CF11F01002DE
:10123000F3CF10F0F45011261050DF6E01D0DF6AAA
:1012400002D0640EDF6E14EC1AF0DF5000D0E552CD
:10125000E552E7CFD9FF1200D9CFE6FFE1CFD9FFA2
:10126000020EE126DE6ADD6AE66AC00EE66E6C0EEC
:10127000E66E410EE66E15EC19F0E552E552E552C8
:10128000E55218EC1AF00EEC1AF0000901E0FBD759
:10129000C450DE6EDD6ADECF10F0DDCF11F0450EFA
:1012A000105E000E115A10C0DEFF11C0DDFFDECF50
:1012B00010F0DDCF11F0113404E210500008000EE0
:1012C00011541FE2DECF10F0DDCF11F00A0E110233
:1012D000F3CF11F01002F3CF10F0F4501126170ED7
:1012E0000D6E0E6A10C008F011C009F082EC19F002
:1012F00008C010F009C011F010C0DEFF11C0DDFF02
:1013000002D0DE6ADD6A14EC1AF0DF50106E020EB5
:10131000E15C03E200D0E16AE552E16E1050E55273
:10132000E7CFD9FF1200D9CFE6FFE1CFD9FFE652D0
:10133000DF6AE66A800EE66E7C0EE66E410EE66EB1
:1013400015EC19F0E552E552E552E55218EC1AF0A9
:101350000EEC1AF0000901E0FBD7C450DF6E14EC6C
:101360001AF0DF5000D0E552E552E7CFD9FF120066
:10137000C088C168C268C0988750800B01E0010E28
:1013800000D01200D9CFE6FFE1CFD9FFFC0EDB5031
:10139000020805E1FD0EDB5002E1000E34D0FE0E26
:1013A000DB50CB6EFE0EDB50FE0BE76EFE0EE7CF82
:1013B000DBFFDB407F0BB76E8196CA84CA80CA828E
:1013C000FC0EDB0404E0FC0EDB50020802E13F0EE1
:1013D000B66EFD0EDB5000080CE2FC0EDB5002087E
:1013E00008E10A0EE66EA8EC19F0E552FD0EDB06E8
:1013F000F0D7FC0EDB50020803E0FC0EDB5001E1ED
:10140000B66A010E00D0E552E7CFD9FF1200D9CF5E
:10141000E6FFE1CFD9FFE652DF6AFE0EDB50030A9A
:1014200001E1AED0010A01E174D0020A3BE0010AF9
:1014300002E0000EDED080A607D0320EE66E03EC8E
:101440001AF0E552DF6AD3D0F00EE66EE6681C0EA5
:10145000E66E410EE66E15EC19F0E552E552E552E6
:10146000E552888C0C0EE66E03EC1AF0E55218EC8F
:101470001AF00EEC1AF0000901E0FBD7C450DF6E41
:10148000889C320EE66E03EC1AF0E55214EC1AF06A
:1014900080A607D0320EE66E03EC1AF0E552DF6A42
:1014A000A6D0A5D080A207D0320EE66E03EC1AF0CB
:1014B000E552DF6A9CD0FC0EE66EE6680C0EE66E26
:1014C000410EE66E15EC19F0E552E552E552E55293
:1014D000888C0C0EE66E03EC1AF0E55218EC1AF04C
:1014E0000EEC1AF0000901E0FBD7C450DF6E889CB7
:1014F000320EE66E03EC1AF0E55214EC1AF080A2FC
:1015000007D0320EE66E03EC1AF0E552DF6A6FD0B8
:101510006ED085AC07D0320EE66E03EC1AF0E552C1
:10152000DF6A65D0E66AF00EE66E5C0EE66E410E8E
:10153000E66E15EC19F0E552E552E552E552888C5D
:101540000C0EE66E03EC1AF0E55218EC1AF00EECF5
:101550001AF0000901E0FBD7C450DF6E889C320E00
:10156000E66E03EC1AF0E55214EC1AF085AC07D0E5
:10157000320EE66E03EC1AF0E552DF6A38D037D04F
:1015800085AA07D0320EE66E03EC1AF0E552DF6A48
:101590002ED0E66AF80EE66E540EE66E410EE66E4A
:1015A00015EC19F0E552E552E552E552888C0C0E27
:1015B000E66E03EC1AF0E55218EC1AF00EEC1AF095
:1015C000000901E0FBD7C450DF6E889C320EE66E46
:1015D00003EC1AF0E55214EC1AF085AA07D0320E8B
:1015E000E66E03EC1AF0E552DF6A01D000D0DF505E
:1015F00000D0E552E552E7CFD9FF1200D9CFE6FF80
:10160000E1CFD9FFE652DF6AC088C168C268C098DE
:10161000FE0EDB50030A01E174D0010A4EE0020A1B
:1016200028E0010A02E0000E92D080A607D0320E18
:10163000E66E03EC1AF0E552DF6A87D0888C0C0E58
:10164000E66E03EC1AF0E5528050080B01E0010E43
:10165000DF6E889C320EE66E03EC1AF0E55280A62F
:1016600007D0320EE66E03EC1AF0E552DF6A6DD059
:101670006CD080A207D0320EE66E03EC1AF0E55271
:10168000DF6A63D0888C0C0EE66E03EC1AF0E5522C
:101690008050020B01E0010EDF6E889C320EE66E78
:1016A00003EC1AF0E55280A207D0320EE66E03EC8E
:1016B0001AF0E552DF6A49D048D085AC07D0320E27
:1016C000E66E03EC1AF0E552DF6A3FD0888C0C0E10
:1016D000E66E03EC1AF0E5528550400B01E0010E76
:1016E000DF6E889C320EE66E03EC1AF0E55285AC94
:1016F00007D0320EE66E03EC1AF0E552DF6A25D011
:1017000024D085AA07D0320EE66E03EC1AF0E5521B
:10171000DF6A1BD0888C0C0EE66E03EC1AF0E552E3
:101720008550200B01E0010EDF6E889C320EE66EC4
:1017300003EC1AF0E55285AA07D0320EE66E03ECF0
:101740001AF0E552DF6A01D000D0DF5000D0E55238
:10175000E552E7CFD9FF1200D9CFE6FFE1CFD9FF9D
:10176000060EE126DF6A010EDB6A020EDB6A030E5B
:10177000DB68040EDB68050EDB6ADE52160EDD6EDA
:10178000050EF36E020EF3CFDBFFDBCFE6FF010E9B
:10179000DBCFE6FFA9D9E552E552000EF36E030E4A
:1017A000DBCFF4FFF350F45C2DE3040EDB06000EF8
:1017B000F36E040EDBCFF4FFF350F45C07E381A279
:1017C00002D004D002D0040EDB06F1D781B21AD0C9
:1017D000030EDB06DB5013E1DE52160EDD6E430E08
:1017E000F36E020EF3CFDBFFDBCFE6FF010EDBCFA4
:1017F000E6FF7AD9E552E552000E4FD002D0040E32
:10180000DB68CBD7FE0EDB50020A25E0030A13E0AB
:10181000010A01E030D0DE52060EDD6E010EDBCF94
:10182000E6FF89D9E552E76E050EE7CFDBFFDB5017
:10183000800ADF6E20D0DE52070EDD6E010EDBCF98
:10184000E6FF79D9E552E76E050EE7CFDBFFDB5007
:10185000800ADF6E10D0DE52080EDD6E010EDBCF87
:10186000E6FF69D9E552E76E050EE7CFDBFFDB50F7
:10187000800ADF6E00D0DE52160EDD6E430EF36E70
:10188000020EF3CFDBFFDBCFE6FF010EDBCFE6FF7F
:101890002BD9E552E552DF5000D0106E060EE15C08
:1018A00002E2E16AE552E16E1050E552E7CFD9FF5E
:1018B0001200D9CFE6FFE1CFD9FF040EE126DF6A9F
:1018C000010EDB6A020EDB6A030EDB6A0A0EDF6EB4
:1018D000DFCFE6FF30D9E552E76E030EE7CFDBFF3F
:1018E000DB50030BE76E010EE7CFDBFFDB50030895
:1018F00004E0010EDB50020807E1010EDB50020B91
:10190000E76E010EE7CFDBFF170EDF6E030EF36EFF
:10191000020EF3CFDBFFDBCFE6FFDFCFE6FFE4D83D
:10192000E552E552170EDF6E020EDB6ADBCFE6FFF3
:10193000DFCFE6FFD9D8E552E552050EE66EA8ECFA
:1019400019F0E552050EE66EA8EC19F0E552050E09
:10195000E66EA8EC19F0E552050EE66EA8EC19F05B
:10196000E552050EE66EA8EC19F0E552010EDB50CB
:10197000106E040EE15C03E200D0E16AE552E16E14
:101980001050E552E7CFD9FF1200D9CFE6FFE1CFE3
:10199000D9FFE652DF6AFE0EDB5011E0010A01E0DA
:1019A0001CD0F80EE66EE668140EE66E410EE66E8A
:1019B00015EC19F0E552E552E552E5520ED0E00E75
:1019C000E66EE668240EE66E410EE66E15EC19F042
:1019D000E552E552E552E55200D083825A0EE66E9A
:1019E00003EC1AF0E55218EC1AF00EEC1AF00009AC
:1019F00001E0FBD7C450DF6E839214EC1AF0DF5085
:101A000000D0E552E552E7CFD9FF1200D9CFE6FF6B
:101A1000E1CFD9FFE652DF6AC088C168C268C098CA
:101A200083825A0EE66E03EC1AF0E552FE0EDB508E
:101A300009E0010A01E00CD08050040B01E0010E26
:101A4000DF6E06D08050200B01E0010EDF6E00D06B
:101A50008392DF5000D0E552E552E7CFD9FF120064
:101A6000829E1200828E1200829E050EE66EA8EC07
:101A700019F0E552828E050EE66EA8EC19F0E552DB
:101A80001200848A1200849A1200849A050EE66E6F
:101A9000A8EC19F0E552848A050EE66EA8EC19F060
:101AA000E5521200819A1200818A1200819A050E75
:101AB000E66EA8EC19F0E552818A050EE66EA8ECF8
:101AC00019F0E5521200819C1200818C1200819C59
:101AD000050EE66EA8EC19F0E552818C050EE66E57
:101AE000A8EC19F0E5521200D9CFE6FFE1CFD9FFFB
:101AF000959E839E5A0EE66E03EC1AF0E552FE0E9A
:101B0000DB50E8240F01386F800E3811386FFD0E5E
:101B1000DBCF39FF38CF6FFF6DA0FED76FCF3BFF14
:101B200039CF6FFF6DA0FED76FCF3AFF838EE5529E
:101B3000E7CFD9FF1200D9CFE6FFE1CFD9FF959EBD
:101B4000839E5A0EE66E03EC1AF0E552FE0EDB5051
:101B5000E8240F013C6F7F0E3C153C6F3D6B3CCF82
:101B60006FFF6DA0FED76FCF3FFF3DCF6FFF6DA022
:101B7000FED76FCF3EFF838E0F013E5100D0E5525E
:061B8000E7CFD9FF1200BF
:0A1B86009682968084928490968ED9
:101B90001200D9CFE6FFE1CFD9FFFE0EDB5064087B
:101BA00002E2020E38D00F01006BFE0EDB50020D78
:101BB000FE0EF3CFDBFFFD0EDB5008E0FE0EDB5028
:101BC0000109E76EFE0EE7CFDBFF07D0FE0EDB500C
:101BD000FE0BE76EFE0EE7CFDBFF0051040DF3CFE7
:101BE00000FFFC0EDB5007E0020E0011006FFE0E3E
:101BF0000015006F03D0FC0E0015006FFB0EDBCF4D
:101C0000E6FFFE0EDBCFE6FF00CFE6FF7DDBE55211
:101C1000E552E55200D0E552E7CFD9FF1200D9CF07
:101C2000E6FFE1CFD9FFFE0EDB50640802E2020EB0
:101C30004AD00F01010E016FFE0EDB50020DFE0EA9
:101C4000F3CFDBFFFD0EDB5008E0FE0EDB50010999
:101C5000E76EFE0EE7CFDBFF07D0FE0EDB50FE0B7C
:101C6000E76EFE0EE7CFDBFF0151040DF3CF01FF5E
:101C7000FB0EDB500EE0FC0EDB5004E0030E011106
:101C8000016F06D0020E0111016FFE0E0115016FEA
:101C90000DD0FC0EDB5007E0FD0E0115016F010EAB
:101CA0000111016F03D0FC0E0115016FFA0EDBCF9D
:101CB000E6FFFE0EDBCFE6FF01CFE6FF25DBE552B8
:101CC000E552E55200D0E552E7CFD9FF1200D9CF57
:101CD000E6FFE1CFD9FFFE0EDB50640802E2020E00
:101CE0005FD0FC0EDB0405E0FC0EDB5002E0020ED0
:101CF00057D0FA0EDB5006E1F90EDB50640802E221
:101D0000020E4ED00F01020E026FFE0EDB50020DCE
:101D1000FE0EF3CFDBFFFD0EDB5008E0FE0EDB50C6
:101D20000109E76EFE0EE7CFDBFF07D0FE0EDB50AA
:101D3000FE0BE76EFE0EE7CFDBFF0251040DF3CF83
:101D400002FFFA0EDB500EE0FB0EDB5004E0030E48
:101D50000211026F06D0020E0211026FFE0E021572
:101D6000026F0DD0FB0EDB5007E0FD0E0215026F77
:101D7000010E0211026F03D0FC0E0215026FF90E64
:101D8000DBCFE6FFFC0EDBCFE6FFFE0EDBCFE6FF90
:101D900002CFE6FF10DBE552E552E552E55200D0F6
:101DA000E552E7CFD9FF1200D9CFE6FFE1CFD9FF47
:101DB000FE0EDB50640802E2020E69D0FC0EDBCF9F
:101DC000E6FFFE0EDB50E552E724640810E3FE0E4A
:101DD000DBCFE6FFFC0EDB50E552E75C106E116ACC
:101DE000113404E210509C08000E115402E2020E5D
:101DF0004ED00F01030E036FFE0EDB50020DFE0EE0
:101E0000F3CFDBFFFD0EDB5008E0FE0EDB500109D7
:101E1000E76EFE0EE7CFDBFF07D0FE0EDB50FE0BBA
:101E2000E76EFE0EE7CFDBFF0351040DF3CF03FF98
:101E3000FA0EDB500EE0FB0EDB5004E0030E031144
:101E4000036F06D0020E0311036FFE0E0315036F1E
:101E50000DD0FB0EDB5007E0FD0E0315036F010EE6
:101E60000311036F03D0FC0E0315036FF90EDBCFD4
:101E7000E6FFFC0EDBCFE6FFFE0EDBCFE6FF03CF77
:101E8000E6FF99DAE552E552E552E55200D0E55217
:101E9000E7CFD9FF12000F01040E046F0451040DA7
:101EA000F3CF04FFFC0E0415046F04CFE6FFF5D951
:101EB000E55200D01200D9CFE6FFE1CFD9FFFE0EE8
:101EC000DB50F009E76EFE0EE7CFDBFFFE0EDBCF47
:101ED000E6FFE3D9E55200D0E552E7CFD9FF120083
:101EE000D9CFE6FFE1CFD9FFFE0EDB508009E76EC8
:101EF000FE0EE7CFDBFFFE0EDBCFE6FFCED9E552CD
:101F0000000909E0080E106E0F0E116E10C0F3FFED
:101F100011C0F4FF2ED00F010A0E076F0751000801
:101F20001FE22BD8110EE66E5ED9E5522DD80F01B7
:101F3000056F055106E036D80F010707010E066F41
:101F40000ED033D80F01086F9DD92FD80F01096F1C
:101F50009FD928D80F01076B066B01D0E2D7DED7D7
:101F6000080E106E0F0E116E10C0F3FF11C0F4FFBB
:101F700000D0E552E7CFD9FF120096829680849276
:101F800096928490969012009682968084A205D0B4
:101F900096929690010E05D004D096929690000EDF
:101FA00000D01200968096821200D9CFE6FFE1CFD2
:101FB000D9FF030EE126020EDB6A9682DE6ADD6A35
:101FC000DECF10F0DDCF11F0113404E2105007081D
:101FD000000E115401E2F6D0968084A0FED7D9CF2E
:101FE000E9FFDACFEAFFEE50ED1015E184A20AD046
:101FF000020EDB508009E76E020EE7CFDBFF849014
:10200000969009D0020EDB507F0BE76E020EE7CFF1
:10201000DBFF84909690D9CFE9FFDACFEAFF010E7B
:10202000EE1801E1ED5015E184A20AD0020EDB505A
:102030004009E76E020EE7CFDBFF8490969009D04F
:10204000020EDB50BF0BE76E020EE7CFDBFF849082
:102050009690D9CFE9FFDACFEAFF020EEE1801E140
:10206000ED5015E184A20AD0020EDB502009E76E84
:10207000020EE7CFDBFF8490969009D0020EDB5072
:10208000DF0BE76E020EE7CFDBFF84909690D9CF8F
:10209000E9FFDACFEAFF030EEE1801E1ED5015E19A
:1020A00084A20AD0020EDB501009E76E020EE7CFC1
:1020B000DBFF8490969009D0020EDB50EF0BE76EA9
:1020C000020EE7CFDBFF84909690D9CFE9FFDACFFD
:1020D000EAFF040EEE1801E1ED5015E184A20AD0EA
:1020E000020EDB500809E76E020EE7CFDBFF84909B
:1020F000969009D0020EDB50F70BE76E020EE7CF89
:10210000DBFF84909690D9CFE9FFDACFEAFF050E86
:10211000EE1801E1ED5015E184A20AD0020EDB5069
:102120000409E76E020EE7CFDBFF8490969009D09A
:10213000020EDB50FB0BE76E020EE7CFDBFF849055
:102140009690D9CFE9FFDACFEAFF060EEE1801E14B
:10215000ED5015E184A20AD0020EDB500209E76EB1
:10216000020EE7CFDBFF8490969009D0020EDB5081
:10217000FD0BE76E020EE7CFDBFF84909690D9CF80
:10218000E9FFDACFEAFF070EEE1801E1ED5015E1A5
:1021900084A20AD0020EDB500109E76E020EE7CFDF
:1021A000DBFF8490969009D0020EDB50FE0BE76EA9
:1021B000020EE7CFDBFF84909690DF2A010E01E349
:1021C000DB2AFED684929692020EDB50106E030E2E
:1021D000E15C03E200D0E16AE552E16E1050E552A5
:1021E000E7CFD9FF1200D9CFE6FFE1CFD9FF020E2A
:1021F000E126DE6ADD6ADECF10F0DDCF11F01134AA
:1022000004E210500708000E115432E3FE0EDB50BA
:10221000DF5206E0DFCFF3FFE846FE0BF306FCE1FA
:102220007F09FF0810E19682968000000000000000
:102230000000000000009690000000000000000078
:102240000000000010D0849296929680000000005A
:102250000000000000000000969000000000000058
:10226000000000000000DF2A010E01E3DB2AC3D7D3
:10227000020EE15C02E2E16AE552E16EE552E7CF6F
:10228000D9FF1200849296929680969096821200C0
:1022900096829680969096821200D9CFE6FFE1CF83
:1022A000D9FF0F010A0E0C6F0C51000827E265DE02
:1022B000100EE66E98DFE55267DE0F010A6F0A51D5
:1022C00006E070DE0F010C07010E0B6F16D0FE0E3C
:1022D000DBCFE6FF88DFE55257DE0F010A6F0A51B8
:1022E00006E060DE0F010C07010E0B6F06D05ADE10
:1022F0000F010C6B0B6B01D0DAD7D6D70B5100D086
:10230000E552E7CFD9FF1200D9CFE6FFE1CFD9FFE1
:102310000F010A0E0F6F0F51000847E22EDE100E5C
:10232000E66E61DFE55230DE0F010D6F0D5106E004
:1023300039DE0F010F07010E0E6F36D0FE0EDBCF18
:10234000E6FF51DFE55220DE0F010D6F0D5106E073
:1023500029DE0F010F07010E0E6F26D0FD0EDBCF19
:10236000E6FF41DFE55210DE0F010D6F0D5106E073
:1023700019DE0F010F07010E0E6F16D0FC0EDBCF1A
:10238000E6FF31DFE55200DE0F010D6F0D5106E073
:1023900009DE0F010F07010E0E6F06D003DE0F01DD
:1023A0000F6B0E6B01D0BAD7B6D70E5100D0E552E5
:1023B000E7CFD9FF1200D9CFE6FFE1CFD9FF0F0158
:1023C0000A0E126F1251000857E2D7DD100EE66EAA
:1023D0000ADFE552D9DD0F01106F105106E0E2DD92
:1023E0000F011207010E116F46D0FE0EDBCFE6FF84
:1023F000FADEE552C9DD0F01106F105106E0D2DDA3
:102400000F011207010E116F36D0FD0EDBCFE6FF74
:10241000EADEE552B9DD0F01106F105106E0C2DDB2
:102420000F011207010E116F26D0FC0EDBCFE6FF65
:10243000DADEE552A9DD0F01106F105106E0B2DDC2
:102440000F011207010E116F16D0FB0EDBCFE6FF56
:10245000CADEE55299DD0F01106F105106E0A2DDD2
:102460000F011207010E116F06D09CDD0F01126BD8
:10247000116B01D0AAD7A6D7115100D0E552E7CFF2
:04248000D9FF12006E
:0C248400F29EF19C8180F288F28CF28EB6
:102490001200D9CFE6FFE1CFD9FF94969488949AA1
:1024A00097949998938087988594300EE66E66ECA1
:1024B00019F0E552E66866EC19F0E552C20EE66ED8
:1024C00066EC19F0E552C20EE66E66EC19F0E552C4
:1024D000C20EE66E66EC19F0E552C20EE66E66ECD0
:1024E00019F0E552858485942A0EE66E66EC19F0A3
:1024F000E552E66866EC19F0E552C20EE66E66EC4F
:1025000019F0E552C20EE66E66EC19F0E552C20E05
:10251000E66E66EC19F0E552C20EE66E66EC19F056
:10252000E552858485942B0EE66E66EC19F0E55233
:10253000FD0EDBCFE6FF66EC19F0E552C20EE66E4B
:1025400066EC19F0E552C20EE66E66EC19F0E55243
:10255000C20EE66E66EC19F0E552C20EE66E66EC4F
:1025600019F0E552858485942C0EE66E66EC19F020
:10257000E552E66A66EC19F0E55285848594210EF1
:10258000E66E66EC19F0E552070EE66E66EC19F0A1
:10259000E55285848594220EE66E66EC19F0E552CC
:1025A000070EE66E66EC19F0E55285848594230EDD
:1025B000E66E66EC19F0E552030EE66E66EC19F075
:1025C000E55285848594240EE66E66EC19F0E5529A
:1025D0000A0EE66E66EC19F0E55285848594260EA7
:1025E000E66E66EC19F0E5520F0EE66E66EC19F039
:1025F000E55285848594270EE66E66EC19F0E55267
:10260000700EE66E66EC19F0E55285848594310E05
:10261000E66E66EC19F0E552010EE66E66EC19F016
:10262000E55285848594320EE66E66EC19F0E5522B
:102630000A0EE66E66EC19F0E55285848594330E39
:10264000E66E66EC19F0E5520A0EE66E66EC19F0DD
:10265000E55285848594250EE66E66EC19F0E55208
:10266000FE0EDBCFE6FF66EC19F0E552858485941B
:10267000050EE66E66EC19F0E552E66A73EC19F0A9
:10268000E5520F01156F8584FE0EDB50155D03E0EA
:10269000000E03D002D0010E00D0E552E7CFD9FFE3
:1026A000120087988594200EE66E66EC19F0E552CC
:1026B0000F0EE66E66EC19F0E55285848594E66AA5
:1026C00066EC19F0E552E66A73EC19F0E5520F0179
:1026D000166F8584C80EE66E03EC1AF0E552878803
:1026E0000F0EE66E03EC1AF0E5520F0E0F01165DA9
:1026F00003E0000E03D002D0010E00D01200879834
:102700008594200EE66E66EC19F0E5520C0EE66E2E
:1027100066EC19F0E55285848594E66A66EC19F05A
:10272000E552E66A73EC19F0E5520F01176F8584E4
:102730000C0E175D03E0000E03D002D0010E00D096
:102740001200D9CFE6FFE1CFD9FF020EE126F2A8B1
:1027500004D00F01010E216F02D00F01216BF29EF8
:1027600087988594270EE66E66EC19F0E552700E98
:10277000E66E66EC19F0E55285848594220EE66ECD
:1027800066EC19F0E552010EE66E66EC19F0E552C2
:1027900085848594300EE66E66EC19F0E552FE0EE7
:1027A000DBCFE6FF66EC19F0E552C20EE66E66EC92
:1027B00019F0E552C20EE66E66EC19F0E552C20E53
:1027C000E66E66EC19F0E552C20EE66E66EC19F0A4
:1027D000E552858485942A0EE66E66EC19F0E55282
:1027E000FE0EDBCFE6FF66EC19F0E552C20EE66E98
:1027F00066EC19F0E552C20EE66E66EC19F0E55291
:10280000C20EE66E66EC19F0E552C20EE66E66EC9C
:1028100019F0E552858485940B0EE66E66EC19F08E
:10282000E552E66A73EC19F0E5520F01206FE66A93
:1028300073EC19F0E552E66A73EC19F0E552E66ABA
:1028400073EC19F0E552E66A73EC19F0E5528584F1
:102850008594A00EE66E66EC19F0E5520F01132B7D
:10286000DF6A080EDF5C19E2DF50E76EFC0EDBCF9B
:10287000E9FFFD0EDBCFEAFFE750E926000EEA2272
:10288000EF50E66EDF50EA6A180FE96E0F0EEA228B
:10289000E552E750EF6EDF2AE4D713CFE6FF66EC90
:1028A00019F0E55220CFE6FF66EC19F0E552DF6A39
:1028B000080EDF5C0DE2DF50EA6A180FE96E0F0EBA
:1028C000EA22EF50E66E66EC19F0E552DF2AF0D707
:1028D00085848594200EE66E66EC19F0E5520E0EA6
:1028E000E66E66EC19F0E55285848788010EE66E87
:1028F00003EC1AF0E5520000000085940F01226BF2
:10290000236B81A00DD00F01222B000E2323F40E88
:102910000F01221902E1010E231901E101D0F1D7C3
:102920008594270EE66E73EC19F0E552E76E010E02
:10293000E7CFDBFF700EE66E66EC19F0E55285849A
:102940008594220EE66E66EC19F0E552070EE66EEF
:1029500066EC19F0E55285848594E10EE66E66EC2E
:1029600019F0E55285848594200EE66E66EC19F028
:10297000E5520F0EE66E66EC19F0E5528584878805
:102980000F0EE66E03EC1AF0E552F40E0F01221959
:1029900002E1010E231904E00F012251231107E186
:1029A000F2920F01210501E1F28E020E17D0010E05
:1029B000DB50100B0CE1010EDB50200B08E0F29213
:1029C0000F01210501E1F28E000E08D007D0F2922E
:1029D0000F01210501E1F28E010E00D0106E020EF2
:1029E000E15C02E2E16AE552E16E1050E552E7CFA8
:1029F000D9FF1200D9CFE6FFE1CFD9FF030EE126C0
:102A0000F2A805D00F01010E246FF29E02D00F0133
:102A1000246B8594170EE66E66EC19F0E552E66AB3
:102A200073EC19F0E552E76E010EE7CFDBFF85840A
:102A30008150010B0AE0010EDB50010B06E00F0193
:102A4000240501E1F28E020E7CD08594070EE66E1D
:102A500073EC19F0E552E76E020EE7CFDBFF8584D9
:102A60008150010B0AE1020EDB50000B06E00F0162
:102A7000240501E1F28E020E64D0F2928594610E7B
:102A8000E66E66EC19F0E552E66A73EC19F0E55271
:102A90000F01146FE66A73EC19F0E552E66EFD0E55
:102AA000DBCFE9FFFE0EDBCFEAFFE552E750EF6E2A
:102AB000DF6A080EDF5C16E2E66A73EC19F0E55295
:102AC000E66EDF50E76EFB0EDBCFE9FFFC0EDBCFDF
:102AD000EAFFE750E926000EEA22E552E750EF6EE2
:102AE000DF2AE7D785848594270EE66E73EC19F00C
:102AF000E552E76E020EE7CFDBFF700EE66E66EC86
:102B000019F0E55285848594170EE66E66EC19F08F
:102B1000E552E66A73EC19F0E552E76E010EE7CF75
:102B2000DBFF8584DB50000B06E00F01240501E18B
:102B3000F28E010E06D00F01240501E1F28E000E87
:102B400000D0106E030EE15C02E2E16AE552E16E34
:0A2B50001050E552E7CFD9FF120044
:062B5A00C00EE66EE66A03
:102B6000400EE66E00D9E552E552E552E66A0A0EDD
:102B7000E66E400EE66EF7D8E552E552E5520001EA
:102B8000606B1200D9CFE6FFE1CFD9FFE652020E0B
:102B9000E66E0A0EE66E400EE66EE5D8E552E552A8
:102BA000E5520001010E606FDF6ADFCF10F00A0E00
:102BB000E76E1018E8AE02D0E73402D0E750105CA0
:102BC00020E2220EE66E0A0EE66E400EE66ECBD8CE
:102BD000E552E552E552320EE66ED5EC19F0E552BB
:102BE000020EE66E0A0EE66E400EE66EBCD8E552A8
:102BF000E552E552320EE66ED5EC19F0E552DF2AC9
:102C0000D4D7220EE66E0A0EE66E400EE66EABD804
:102C1000E552E552E552E552E552E7CFD9FF120001
:102C2000E66A0A0EE66E400EE66E9DD8E552E55263
:102C3000E5520001606B1200D9CFE6FFE1CFD9FF6A
:102C4000FE0EDB50040A6AE0070A47E0010A24E0AE
:102C5000030A01E084D0D80EE66EE66A400EE66E06
:102C600082D8E552E552E552000160050BE1220EE3
:102C7000E66E0A0EE66E400EE66E75D8E552E55237
:102C8000E55209D0E66A0A0EE66E400EE66E6BD893
:102C9000E552E552E55263D0D40EE66EE66A400E88
:102CA000E66E61D8E552E552E552000160050BE1A0
:102CB000220EE66E0A0EE66E400EE66E54D8E5521F
:102CC000E552E55209D0E66A0A0EE66E400EE66E5F
:102CD0004AD8E552E552E55242D0CC0EE66EE66A9D
:102CE000400EE66E40D8E552E552E552000160051F
:102CF0000BE1220EE66E0A0EE66E400EE66E33D84B
:102D0000E552E552E55209D0E66A0A0EE66E400E3B
:102D1000E66E29D8E552E552E55221D0DC0EE66E8A
:102D2000E66A400EE66E1FD8E552E552E552000114
:102D300060050BE1220EE66E0A0EE66E400EE66EB0
:102D400012D8E552E552E55209D0E66A0A0EE66E5F
:102D5000400EE66E08D8E552E552E55200D0E55245
:102D6000E7CFD9FF1200D9CFE6FFE1CFD9FF859495
:102D7000010EE66EA8EC19F0E5528584FE0EDBCF5D
:102D8000E6FF66EC19F0E552FD0EDBCFE6FF66ECE0
:102D900019F0E552FC0EDBCFE6FF66EC19F0E552C8
:0A2DA0008594E552E7CFD9FF120039
:062DAA00C76AC66A9488A6
:102DB00000000000000094860000000000001200E7
:102DC0009488948600000000000082989498000087
:102DD00000000000000000000000000000000000F3
:102DE0000000000000008296949600001200D9CFE7
:102DF000E6FFE1CFD9FFE652948800000000000012
:102E0000948600000000000082A803D0010EDF6E4F
:102E100001D0DF6A00000000000000000000000098
:102E200082969496DF5000D0E552E552E7CFD9FF65
:102E30001200829894980000000000009486000020
:102E40000000000094880000000000001200D9CFAC
:102E5000E6FFE1CFD9FF040EE126800EF36E030EEC
:102E6000F3CFDBFF9488DE6ADD6ADECF10F0DDCFC2
:102E700011F0113404E210500708000E115431E330
:102E8000000000000000948600000000000082A8FE
:102E90000CD0030EDBCFE6FF020EDB50E552E7104D
:102EA000E76E020EE7CFDBFF0BD0020EDBCFE6FFB3
:102EB000030EDB1CE552E714E76E020EE7CFDBFFE3
:102EC00000000000000082969496030EDB407F0B0A
:102ED000E76E030EE7CFDBFFDF2A010E01E3DB2AFB
:102EE000C4D7020EDB5000D0106E040EE15C02E28B
:102EF000E16AE552E16E1050E552E7CFD9FF1200CA
:102F0000D9CFE6FFE1CFD9FF030EE126FE0EDB505D
:102F1000DF6E010EDB6A020EDB6A010EDBCF10F002
:102F2000020EDBCF11F0113404E210500708000E3E
:102F300011541CE3800EDF14800802E1948802D053
:102F4000829894980000000000009486DF50E824E6
:102F5000DF6E0000000000000000000082969496E2
:102F6000010EDB2A020E01E3DB2AD7D7030EE15C58
:102F700002E2E16AE552E16EE552E7CFD9FF1200C5
:102F800082989498000000000000000000009486E1
:102F90000000000000000000000000000000000031
:102FA0008296949612009488000094860000000097
:102FB00000000000000000000000000082969496CF
:082FC0000000000000001200F7
:082FC800DACFE4FFE2CFDAFFEB
:102FD000E9CFE4FFEACFE4FFF6CFE4FFF7CFE4FF69
:102FE000F5CFE4FFF3CFE4FFF4CFE4FFFACFE4FF43
:102FF00000EE00F0100EE80403E3EECFE4FFFBD791
:1030000000EE10F0020EE80403E3EECFE4FFFBD77E
:10301000E6522F0EE66E0F0EE66E370EE66E0F0EC0
:10302000E66EFAEC14F0E552E552E552E552E5524F
:1030300000EE11F0020EE80403E3E5CFEDFFFBD74D
:1030400000EE0FF0100EE80403E3E5CFEDFFFBD731
:10305000E5CFFAFFE5CFF4FFE5CFF3FFE5CFF5FFCE
:10306000E5CFF7FFE5CFF6FFE5CFEAFFE5CFE9FFD4
:10307000E5CFDAFF1100D8CFE4FFE0CFE4FFE46E44
:10308000DACFE4FFE2CFDAFFE652E552E5CFDAFF2E
:10309000E550E5CFE0FFE5CFD8FF1000D9CFE6FF40
:1030A000E1CFD9FFE652DF6AFE0EDB50DF5C07E2BC
:1030B000640EE66EA8EC19F0E552DF2AF5D7E5526A
:1030C000E552E7CFD9FF1200D9CFE6FFE1CFD9FF14
:1030D000060EE126E66E70EC0FF0E552F3CFDEFF50
:1030E000F4CFDDFFDECFE9FFDDCFEAFF010EE926F9
:1030F000000EEA22020EEFCFDBFFDECFE9FFDDCFCD
:10310000EAFF030EEFCFDBFF020EDB50E66ED95075
:10311000040FE96EDACFEAFFE552E750EE6EED6A92
:10312000040EDBCF10F0050EDBCF11F010C011F054
:10313000106A040E10C0DBFF050E11C0DBFF030E8A
:10314000DB50E76E040EDBCF10F0050EDBCF11F085
:10315000E7501012040E10C0DBFF050E11C0DBFF9C
:10316000040EDBCF10F0050EDBCF11F010C0F3FF23
:1031700011C0F4FF060EE15C03E200D0E16AE55203
:0C318000E16EE552E7CFD9FF120012000B
:04318C002A0EF66EA3
:10319000100EF76E000EF86E0F010900F5502A6F41
:1031A0000900F5502B6F03E12A6701D03DD00900DB
:1031B000F550256F0900F550266F0900F550276F6F
:1031C00009000900F550E96E0900F550EA6E0900A2
:1031D00009000900F550286F0900F550296F090012
:1031E0000900F6CF2CFFF7CF2DFFF8CF2EFF25CF0C
:1031F000F6FF26CFF7FF27CFF8FF0F01285302E194
:10320000295307E00900F550EE6E2807F8E2290778
:10321000F9D72CCFF6FF2DCFF7FF2ECFF8FF0F01F8
:0A3220002A07000E2B5BBFD7120037
:06322A00D9CFE6FFDACF68
:10323000E6FFE1CFD9FFE2CFDAFFC098C26AC16AE8
:10324000FC0EDB50400DF350C00B106EFC0EDB404B
:103250007F0B3C0B1010C26EFD0EDB50040DF350C3
:10326000380B116EFD0EDB380F0B070B106EFD0EC9
:10327000DB50800B10101110C16EC088FA0EDB50AD
:10328000C16EFA0EDBCF10F0FB0EDBCF11F011C0D8
:1032900010F0116A1050C26EC098FC0EDBAE03D065
:1032A0009E9C9D8CF28CC280E552E5CFDAFFE7CF81
:0432B000D9FF120030
:0C32B40094969488949A9794999893802B
:1032C000C00EC76E200EC66EC56A1200D9CFE6FFCB
:1032D000E1CFD9FFFE0EDB50C96EC7A0FED7E55285
:1032E000E7CFD9FF1200D9CFE6FFE1CFD9FFFE0E1D
:1032F000DB50C96EC7A0FED7C95000D0E552E7CF5A
:04330000D9FF1200DF
:0C330400006A0EAE8BEF19F00D6C0E1E6F
:10331000E86A0E22001E09AE93EF19F0086C091E30
:10332000E86A0922001EBFEC19F009BEA3EF19F0EC
:1033300000AE000C086C091EE86A0922046C051E28
:10334000E86A0522000C00BE9AEF19F00188FF0C14
:10335000FF0EE350136EEF0E01D0F30EE76EE72E73
:10336000AFEF19F00C0E126EE76AE72EB5EF19F009
:0E337000122EB4EF19F0132EADEF19F012006B
:02337E00056ADE
:10338000046A100EE76ED890083609360436053602
:103390000D50045C0E50055805E30D50045E0E50B0
:0A33A000055A082AE72EF0D71200A4
:0633AA00FF0EE350136E5C
:1033B000480E01D04C0EE76EE72EFED7E76AE72EE7
:0A33C000FED7132EF7D7000012000D
:0633CA00400EF36E00EE60
:1033D00000F00F0E01D81200EA6002D0EE6AFCD7AE
:0A33E000F350E9601200EE6AFCD71A
:0633EA001EEE00F02EEEC5
:1033F00000F0F86A019CC6EC18F01BEC1AF0C5EC62
:0634000018F0FBD71200DA
:0A340600FF0EE350E84E1200000034
:0C34100000D000D000D0E82EFAD7120047
:04341C00C098C25042
:08342000020B01E0010E120095
:08342800C098C2909D9C1200A7
:06343000C098C2821200E8
:02343600120082
:013438000093
:00000001FF
